{
  "contractName": "Contract",
  "abi": [
    {
      "constant": true,
      "inputs": [],
      "name": "Name",
      "outputs": [
        {
          "name": "",
          "type": "bytes32"
        }
      ],
      "payable": false,
      "stateMutability": "view",
      "type": "function"
    },
    {
      "inputs": [
        {
          "name": "name",
          "type": "bytes32"
        }
      ],
      "payable": false,
      "stateMutability": "nonpayable",
      "type": "constructor"
    }
  ],
  "bytecode": "0x608060405234801561001057600080fd5b506040516020806100f38339810180604052810190808051906020019092919050505080600081600019169055505060a68061004d6000396000f300608060405260043610603f576000357c0100000000000000000000000000000000000000000000000000000000900463ffffffff1680638052474d146044575b600080fd5b348015604f57600080fd5b5060566074565b60405180826000191660001916815260200191505060405180910390f35b600054815600a165627a7a72305820329273bf159b774810434caa3db7deccb51cfcbb46b751406649cdcea19059cd0029",
  "source": "pragma solidity 0.4.23;\n\ncontract Contract {\n    bytes32 public Name;\n\n    constructor (bytes32 name) public {\n        Name = name;\n    }\n}\n",
  "sourcePath": "/Users/aldo/Development/ethvm/ethvm/utils/test-contracts/contracts/Tracer/Contract.sol",
  "compiler": {
    "name": "solc",
    "version": "0.4.23+commit.124ca40d.Emscripten.clang"
  },
  "schemaVersion": "2.0.0",
  "updatedAt": "2018-09-14T17:26:56.511Z"
}