{
  "contractName": "Factory",
  "abi": [
    {
      "constant": false,
      "inputs": [
        {
          "name": "name",
          "type": "bytes32"
        }
      ],
      "name": "createContract",
      "outputs": [],
      "payable": false,
      "stateMutability": "nonpayable",
      "type": "function"
    }
  ],
  "bytecode": "0x608060405234801561001057600080fd5b5061024b806100206000396000f300608060405260043610610041576000357c0100000000000000000000000000000000000000000000000000000000900463ffffffff1680633f811b8014610046575b600080fd5b34801561005257600080fd5b506100756004803603810190808035600019169060200190929190505050610077565b005b60008161008261011d565b808260001916600019168152602001915050604051809103906000f0801580156100b0573d6000803e3d6000fd5b50905060008190806001815401808255809150509060018203906000526020600020016000909192909190916101000a81548173ffffffffffffffffffffffffffffffffffffffff021916908373ffffffffffffffffffffffffffffffffffffffff160217905550505050565b60405160f38061012d833901905600608060405234801561001057600080fd5b506040516020806100f38339810180604052810190808051906020019092919050505080600081600019169055505060a68061004d6000396000f300608060405260043610603f576000357c0100000000000000000000000000000000000000000000000000000000900463ffffffff1680638052474d146044575b600080fd5b348015604f57600080fd5b5060566074565b60405180826000191660001916815260200191505060405180910390f35b600054815600a165627a7a72305820329273bf159b774810434caa3db7deccb51cfcbb46b751406649cdcea19059cd0029a165627a7a72305820a89d835738366b2549599b13cf300cdd6863cfb1b7e7ca3c37ebbdf7fc0601630029",
  "source": "pragma solidity 0.4.23;\n\nimport \"./Contract.sol\";\n\ncontract Factory {\n    address[] newContracts;\n\n    function createContract (bytes32 name) public {\n        address newContract = new Contract(name);\n        newContracts.push(newContract);\n    }\n}\n",
  "sourcePath": "/Users/aldo/Development/ethvm/ethvm/utils/test-contracts/contracts/Tracer/Factory.sol",
  "compiler": {
    "name": "solc",
    "version": "0.4.23+commit.124ca40d.Emscripten.clang"
  },
  "schemaVersion": "2.0.0",
  "updatedAt": "2018-09-14T17:26:56.511Z"
}