{
  "contractName": "Utility",
  "abi": [
    {
      "constant": true,
      "inputs": [
        {
          "name": "",
          "type": "address"
        },
        {
          "name": "",
          "type": "uint32"
        },
        {
          "name": "",
          "type": "uint32"
        }
      ],
      "name": "getAllBalance",
      "outputs": [
        {
          "name": "",
          "type": "bytes"
        }
      ],
      "payable": false,
      "stateMutability": "pure",
      "type": "function"
    }
  ],
  "bytecode": "0x608060405234801561001057600080fd5b50610157806100206000396000f300608060405260043610610041576000357c0100000000000000000000000000000000000000000000000000000000900463ffffffff168063455d536514610046575b600080fd5b34801561005257600080fd5b506100a7600480360381019080803573ffffffffffffffffffffffffffffffffffffffff169060200190929190803563ffffffff169060200190929190803563ffffffff169060200190929190505050610122565b6040518080602001828103825283818151815260200191508051906020019080838360005b838110156100e75780820151818401526020810190506100cc565b50505050905090810190601f1680156101145780820380516001836020036101000a031916815260200191505b509250505060405180910390f35b606093925050505600a165627a7a723058201a7f91ef8a34e1ec01eb7439c0ec976ba366bb9352138365daa53b1105ad6ea00029",
  "source": "pragma solidity ^0.4.0;\ncontract Utility{\n  // address limit page\n    function getAllBalance(address,uint32,uint32) public pure returns (bytes){}\n}\n",
  "sourcePath": "/Users/nicky/Documents/workspace/src/github.com/enKryptIO/ethvm/apps/contracts/contracts/Utility.sol",
  "compiler": {
    "name": "solc",
    "version": "0.4.24+commit.e67f0147.Emscripten.clang"
  },
  "schemaVersion": "2.0.1",
  "updatedAt": "2018-09-19T22:01:31.299Z"
}